{"abi":[{"type":"constructor","inputs":[],"stateMutability":"nonpayable"},{"type":"receive","stateMutability":"payable"},{"type":"function","name":"REQUIRED_AMOUNT","inputs":[],"outputs":[{"name":"","type":"uint256","internalType":"uint256"}],"stateMutability":"view"},{"type":"function","name":"contributions","inputs":[{"name":"","type":"address","internalType":"address"}],"outputs":[{"name":"","type":"uint256","internalType":"uint256"}],"stateMutability":"view"},{"type":"function","name":"fundMe","inputs":[],"outputs":[],"stateMutability":"payable"},{"type":"function","name":"funders","inputs":[{"name":"","type":"uint256","internalType":"uint256"}],"outputs":[{"name":"","type":"address","internalType":"address"}],"stateMutability":"view"},{"type":"function","name":"getBalance","inputs":[],"outputs":[{"name":"","type":"uint256","internalType":"uint256"}],"stateMutability":"view"},{"type":"function","name":"getFundersCount","inputs":[],"outputs":[{"name":"","type":"uint256","internalType":"uint256"}],"stateMutability":"view"},{"type":"function","name":"getMyContribution","inputs":[],"outputs":[{"name":"","type":"uint256","internalType":"uint256"}],"stateMutability":"view"},{"type":"function","name":"owner","inputs":[],"outputs":[{"name":"","type":"address","internalType":"address"}],"stateMutability":"view"},{"type":"function","name":"paused","inputs":[],"outputs":[{"name":"","type":"bool","internalType":"bool"}],"stateMutability":"view"},{"type":"function","name":"togglePause","inputs":[],"outputs":[],"stateMutability":"nonpayable"},{"type":"function","name":"transferOwnership","inputs":[{"name":"newOwner","type":"address","internalType":"address"}],"outputs":[],"stateMutability":"nonpayable"},{"type":"function","name":"withdraw","inputs":[{"name":"_amount","type":"uint256","internalType":"uint256"}],"outputs":[],"stateMutability":"nonpayable"},{"type":"function","name":"withdrawAll","inputs":[],"outputs":[],"stateMutability":"nonpayable"},{"type":"event","name":"FundReceived","inputs":[{"name":"funder","type":"address","indexed":true,"internalType":"address"},{"name":"amount","type":"uint256","indexed":false,"internalType":"uint256"}],"anonymous":false},{"type":"event","name":"WithdrawalMade","inputs":[{"name":"to","type":"address","indexed":true,"internalType":"address"},{"name":"amount","type":"uint256","indexed":false,"internalType":"uint256"}],"anonymous":false}],"bytecode":{"object":"0x6080604052348015600e575f5ffd5b50335f5f6101000a81548173ffffffffffffffffffffffffffffffffffffffff021916908373ffffffffffffffffffffffffffffffffffffffff16021790555061101c8061005b5f395ff3fe6080604052600436106100c5575f3560e01c806387e696251161007e578063b6a324e011610058578063b6a324e01461027f578063c4ae316814610289578063dc0d3dff1461029f578063f2fde38b146102db57610105565b806387e69625146102015780638da5cb5b1461022b578063920b3a7e1461025557610105565b806312065fe0146101095780632e1a7d4d1461013357806342e94c901461015b5780635c975abb1461019757806381c35cbd146101c1578063853828b6146101eb57610105565b36610105576040517f08c379a00000000000000000000000000000000000000000000000000000000081526004016100fc90610b68565b60405180910390fd5b5f5ffd5b348015610114575f5ffd5b5061011d610303565b60405161012a9190610b9e565b60405180910390f35b34801561013e575f5ffd5b5061015960048036038101906101549190610be5565b61030a565b005b348015610166575f5ffd5b50610181600480360381019061017c9190610c6a565b6104b0565b60405161018e9190610b9e565b60405180910390f35b3480156101a2575f5ffd5b506101ab6104c5565b6040516101b89190610caf565b60405180910390f35b3480156101cc575f5ffd5b506101d56104d7565b6040516101e29190610b9e565b60405180910390f35b3480156101f6575f5ffd5b506101ff61051b565b005b34801561020c575f5ffd5b506102156106c4565b6040516102229190610b9e565b60405180910390f35b348015610236575f5ffd5b5061023f6106ce565b60405161024c9190610cd7565b60405180910390f35b348015610260575f5ffd5b506102696106f2565b6040516102769190610b9e565b60405180910390f35b6102876106fe565b005b348015610294575f5ffd5b5061029d6108dd565b005b3480156102aa575f5ffd5b506102c560048036038101906102c09190610be5565b610995565b6040516102d29190610cd7565b60405180910390f35b3480156102e6575f5ffd5b5061030160048036038101906102fc9190610c6a565b6109d0565b005b5f47905090565b5f5f9054906101000a900473ffffffffffffffffffffffffffffffffffffffff1673ffffffffffffffffffffffffffffffffffffffff163373ffffffffffffffffffffffffffffffffffffffff1614610398576040517f08c379a000000000000000000000000000000000000000000000000000000000815260040161038f90610d60565b60405180910390fd5b478111156103db576040517f08c379a00000000000000000000000000000000000000000000000000000000081526004016103d290610dc8565b60405180910390fd5b5f5f9054906101000a900473ffffffffffffffffffffffffffffffffffffffff1673ffffffffffffffffffffffffffffffffffffffff166108fc8290811502906040515f60405180830381858888f1935050505015801561043e573d5f5f3e3d5ffd5b505f5f9054906101000a900473ffffffffffffffffffffffffffffffffffffffff1673ffffffffffffffffffffffffffffffffffffffff167fbc158bb64f05d6383aea69bbb0b20c1bbf4b7a18f63359c5649b7c39e29d3884826040516104a59190610b9e565b60405180910390a250565b6001602052805f5260405f205f915090505481565b60035f9054906101000a900460ff1681565b5f60015f3373ffffffffffffffffffffffffffffffffffffffff1673ffffffffffffffffffffffffffffffffffffffff1681526020019081526020015f2054905090565b5f5f9054906101000a900473ffffffffffffffffffffffffffffffffffffffff1673ffffffffffffffffffffffffffffffffffffffff163373ffffffffffffffffffffffffffffffffffffffff16146105a9576040517f08c379a00000000000000000000000000000000000000000000000000000000081526004016105a090610d60565b60405180910390fd5b5f4790505f81116105ef576040517f08c379a00000000000000000000000000000000000000000000000000000000081526004016105e690610e30565b60405180910390fd5b5f5f9054906101000a900473ffffffffffffffffffffffffffffffffffffffff1673ffffffffffffffffffffffffffffffffffffffff166108fc8290811502906040515f60405180830381858888f19350505050158015610652573d5f5f3e3d5ffd5b505f5f9054906101000a900473ffffffffffffffffffffffffffffffffffffffff1673ffffffffffffffffffffffffffffffffffffffff167fbc158bb64f05d6383aea69bbb0b20c1bbf4b7a18f63359c5649b7c39e29d3884826040516106b99190610b9e565b60405180910390a250565b6551dac207a00081565b5f5f9054906101000a900473ffffffffffffffffffffffffffffffffffffffff1681565b5f600280549050905090565b60035f9054906101000a900460ff161561074d576040517f08c379a000000000000000000000000000000000000000000000000000000000815260040161074490610e98565b60405180910390fd5b6551dac207a0003414610795576040517f08c379a000000000000000000000000000000000000000000000000000000000815260040161078c90610f00565b60405180910390fd5b5f60015f3373ffffffffffffffffffffffffffffffffffffffff1673ffffffffffffffffffffffffffffffffffffffff1681526020019081526020015f20540361083a57600233908060018154018082558091505060019003905f5260205f20015f9091909190916101000a81548173ffffffffffffffffffffffffffffffffffffffff021916908373ffffffffffffffffffffffffffffffffffffffff1602179055505b3460015f3373ffffffffffffffffffffffffffffffffffffffff1673ffffffffffffffffffffffffffffffffffffffff1681526020019081526020015f205f8282546108869190610f4b565b925050819055503373ffffffffffffffffffffffffffffffffffffffff167f54a5b8782470a0d2c022b3b9e5e729503ac5dbdfe053afeb4559f9297f7565a6346040516108d39190610b9e565b60405180910390a2565b5f5f9054906101000a900473ffffffffffffffffffffffffffffffffffffffff1673ffffffffffffffffffffffffffffffffffffffff163373ffffffffffffffffffffffffffffffffffffffff161461096b576040517f08c379a000000000000000000000000000000000000000000000000000000000815260040161096290610d60565b60405180910390fd5b60035f9054906101000a900460ff161560035f6101000a81548160ff021916908315150217905550565b600281815481106109a4575f80fd5b905f5260205f20015f915054906101000a900473ffffffffffffffffffffffffffffffffffffffff1681565b5f5f9054906101000a900473ffffffffffffffffffffffffffffffffffffffff1673ffffffffffffffffffffffffffffffffffffffff163373ffffffffffffffffffffffffffffffffffffffff1614610a5e576040517f08c379a0000000000000000000000000000000000000000000000000000000008152600401610a5590610d60565b60405180910390fd5b5f73ffffffffffffffffffffffffffffffffffffffff168173ffffffffffffffffffffffffffffffffffffffff1603610acc576040517f08c379a0000000000000000000000000000000000000000000000000000000008152600401610ac390610fc8565b60405180910390fd5b805f5f6101000a81548173ffffffffffffffffffffffffffffffffffffffff021916908373ffffffffffffffffffffffffffffffffffffffff16021790555050565b5f82825260208201905092915050565b7f5573652066756e644d6528292066756e6374696f6e00000000000000000000005f82015250565b5f610b52601583610b0e565b9150610b5d82610b1e565b602082019050919050565b5f6020820190508181035f830152610b7f81610b46565b9050919050565b5f819050919050565b610b9881610b86565b82525050565b5f602082019050610bb15f830184610b8f565b92915050565b5f5ffd5b610bc481610b86565b8114610bce575f5ffd5b50565b5f81359050610bdf81610bbb565b92915050565b5f60208284031215610bfa57610bf9610bb7565b5b5f610c0784828501610bd1565b91505092915050565b5f73ffffffffffffffffffffffffffffffffffffffff82169050919050565b5f610c3982610c10565b9050919050565b610c4981610c2f565b8114610c53575f5ffd5b50565b5f81359050610c6481610c40565b92915050565b5f60208284031215610c7f57610c7e610bb7565b5b5f610c8c84828501610c56565b91505092915050565b5f8115159050919050565b610ca981610c95565b82525050565b5f602082019050610cc25f830184610ca0565b92915050565b610cd181610c2f565b82525050565b5f602082019050610cea5f830184610cc8565b92915050565b7f4f6e6c79206f776e65722063616e2063616c6c20746869732066756e6374696f5f8201527f6e00000000000000000000000000000000000000000000000000000000000000602082015250565b5f610d4a602183610b0e565b9150610d5582610cf0565b604082019050919050565b5f6020820190508181035f830152610d7781610d3e565b9050919050565b7f496e73756666696369656e742062616c616e63650000000000000000000000005f82015250565b5f610db2601483610b0e565b9150610dbd82610d7e565b602082019050919050565b5f6020820190508181035f830152610ddf81610da6565b9050919050565b7f4e6f2062616c616e636520746f207769746864726177000000000000000000005f82015250565b5f610e1a601683610b0e565b9150610e2582610de6565b602082019050919050565b5f6020820190508181035f830152610e4781610e0e565b9050919050565b7f436f6e74726163742069732070617573656400000000000000000000000000005f82015250565b5f610e82601283610b0e565b9150610e8d82610e4e565b602082019050919050565b5f6020820190508181035f830152610eaf81610e76565b9050919050565b7f4d7573742073656e642065786163746c7920302e3030303039204554480000005f82015250565b5f610eea601d83610b0e565b9150610ef582610eb6565b602082019050919050565b5f6020820190508181035f830152610f1781610ede565b9050919050565b7f4e487b71000000000000000000000000000000000000000000000000000000005f52601160045260245ffd5b5f610f5582610b86565b9150610f6083610b86565b9250828201905080821115610f7857610f77610f1e565b5b92915050565b7f496e76616c6964206164647265737300000000000000000000000000000000005f82015250565b5f610fb2600f83610b0e565b9150610fbd82610f7e565b602082019050919050565b5f6020820190508181035f830152610fdf81610fa6565b905091905056fea2646970667358221220b921b72eed972bd86f781d2393f7b4aaedced002c6cdb9293bff7e3126b032a864736f6c634300081c0033","linkReferences":{}},"methodIdentifiers":{"REQUIRED_AMOUNT()":"87e69625","contributions(address)":"42e94c90","fundMe()":"b6a324e0","funders(uint256)":"dc0d3dff","getBalance()":"12065fe0","getFundersCount()":"920b3a7e","getMyContribution()":"81c35cbd","owner()":"8da5cb5b","paused()":"5c975abb","togglePause()":"c4ae3168","transferOwnership(address)":"f2fde38b","withdraw(uint256)":"2e1a7d4d","withdrawAll()":"853828b6"},"id":0}